:100000000C9456000C9475000C9475000C947500BB
:100010000C9475000C9475000C9475000C9475008C
:100020000C9475000C9475000C9475000C9475007C
:100030000C9475000C9475000C9475000C9475006C
:100040000C9475000C9475000C9475000C9475005C
:100050000C9475000C9475000C9475000C9475004C
:100060000C9475000C9475000C9475000C9475003C
:100070000C9475000C9475000C9475000C9475002C
:100080000C9475000C9475000C947500BA00C100B6
:10009000C800FD001E013F0146014D017D018301A5
:1000A000BF01BF01BF0189019F01B40111241FBE1F
:1000B000CFEFD0E4DEBFCDBF11E0A0E0B1E0E8EDCE
:1000C000F3E000E00BBF02C007900D92AE30B10725
:1000D000D9F721E0AEE0B1E001C01D92A031B20736
:1000E000E1F70E94C4010C94EA010C940000CF9344
:1000F000DF9300D01F92CDB7DEB789837B836A83FD
:1001000089818A3031F48A819B81BC018DE00E9413
:10011000770080EC90E0FC018081882F90E0807275
:100120009927892BB1F386EC90E02981FC0120838B
:1001300080E090E00F900F900F90DF91CF910895A5
:10014000CF93DF93CDB7DEB780910E0190910F0171
:10015000CC01A0E0B0E040E050E027E030E0841BBC
:10016000950B2817390708F4ACC08A5B9F4FFC0138
:100170000C94E10181E090E090930F0180930E01D7
:10018000A6C082E090E090930F0180930E019FC083
:1001900080E290E0FC018081813039F485E090E0DC
:1001A00090930F0180930E0191C080E290E0FC01DA
:1001B0008081823039F486E090E090930F01809343
:1001C0000E0184C080E290E0FC018081833039F42C
:1001D00087E090E090930F0180930E0177C080E25A
:1001E00090E0FC018081882309F070C082E090E0FB
:1001F00090930F0180930E0169C080E290E0FC01B2
:100200008081813039F483E090E090930F018093F6
:100210000E015DC080E290E0FC018081833039F402
:1002200087E090E090930F0180930E0150C082E030
:1002300090E090930F0180930E0149C080E290E01E
:10024000FC018081823039F484E090E090930F01CA
:1002500080930E013CC080E290E0FC0180818330FD
:1002600039F487E090E090930F0180930E012FC046
:1002700082E090E090930F0180930E0128C083E00C
:1002800090E090930F0180930E0121C084E090E0F4
:1002900090930F0180930E011AC080E290E0FC0160
:1002A0008081833039F487E090E090930F01809350
:1002B0000E010DC082E090E090930F0180930E013B
:1002C00006C010920F0110920E0101C00000809133
:1002D0000E0190910F01CC01A0E0B0E040E050E0B1
:1002E00027E030E0841B950B2817390708F441C03C
:1002F000825B9F4FFC010C94E10188E290E027E0D3
:10030000FC0120833DC088E290E027E0FC012083CF
:1003100037C088E290E0FC018081893050F488E2A7
:1003200090E028E230E0F90120812F5FFC0120837A
:1003300027C088E290E029E0FC01208321C088E208
:1003400090E0FC018081882351F088E290E028E26F
:1003500030E0F90120812150FC01208311C088E2A6
:1003600090E0FC0110820CC088E290E0FC01108259
:1003700007C088E290E027E0FC01208301C0000074
:100380000000DF91CF910895CF93DF93CDB7DEB713
:1003900081E290E0FC01108282E290E02FEFFC010C
:1003A000208387E290E02FEFFC01208388E290E039
:1003B000FC01108210920F0110920E010E94A00009
:1003C000FDCFEE0FFF1F0024001C0BBE0790F6911F
:0803D000E02D0994F894FFCF21
:0E03D80000000002000000007700000000009E
:00000001FF
