:100000000C9454000C9473000C9473000C947300C3
:100010000C9473000C9473000C9473000C94730094
:100020000C9473000C9473000C9473000C94730084
:100030000C9473000C9473000C9473000C94730074
:100040000C9473000C9473000C9473000C94730064
:100050000C9473000C9473000C9473000C94730054
:100060000C9473000C9473000C9473000C94730044
:100070000C9473000C9473000C9473000C94730034
:100080000C9473000C9473000C947300B800BF00C0
:10009000E0000101220143016E01A201B701B70195
:1000A000B701B701A701AD0111241FBECFEFD0E406
:1000B000DEBFCDBF11E0A0E0B1E0E8ECF3E000E08E
:1000C0000BBF02C007900D92AE30B107D9F721E007
:1000D000AEE0B1E001C01D92A031B207E1F70E948D
:1000E000BC010C94E2010C940000CF93DF9300D08C
:1000F0001F92CDB7DEB789837B836A8389818A307B
:1001000031F48A819B81BC018DE00E94750080ECF6
:1001100090E0FC018081882F90E080729927892BE4
:10012000B1F386EC90E02981FC01208380E090E02F
:100130000F900F900F90DF91CF910895CF93DF93A1
:10014000CDB7DEB780910E0190910F01CC01A0E0F8
:10015000B0E040E050E026E030E0841B950B28172B
:10016000390708F4D5C08A5B9F4FFC010C94D90174
:1001700081E090E090930F0180930E01CEC080E269
:1001800090E0FC018081843039F482E090E090932B
:100190000F0180930E01C1C080E290E0FC018081DC
:1001A000803839F486E090E090930F0180930E013F
:1001B000B4C081E090E090930F0180930E01ADC038
:1001C00080E290E0FC018081843039F482E090E0AC
:1001D00090930F0180930E01A0C080E290E0FC019B
:1001E0008081882339F483E090E090930F0180931D
:1001F0000E0193C086E090E090930F0180930E0172
:100200008CC080E290E0FC018081882339F483E097
:1002100090E090930F0180930E017FC080E290E008
:10022000FC018081823039F484E090E090930F01EA
:1002300080930E0172C086E090E090930F0180934E
:100240000E016BC080E290E0FC018081823039F4C5
:1002500085E090E090930F0180930E015EC080E2F4
:1002600090E0FC018081882339F484E090E0909351
:100270000F0180930E0151C081E090E090930F0137
:1002800080930E014AC080E290E0FC018081882FBB
:1002900090E087709927029739F485E090E0909379
:1002A0000F0180930E0139C080E290E0FC01808153
:1002B000882334F080E290E0FC018081863039F4BC
:1002C00086E090E090930F0180930E0126C081E0BC
:1002D00090E090930F0180930E011FC080E290E0A8
:1002E000FC018081803831F080E290E0FC01808167
:1002F000863039F486E090E090930F0180930E01F0
:100300000CC081E090E090930F0180930E0105C036
:1003100010920F0110920E01000080910E01909139
:100320000F01CC01A0E0B0E040E050E026E030E07A
:10033000841B950B28173907A8F0835B9F4FFC019E
:100340000C94D90185E290E0FC01108211C085E295
:1003500090E021E0FC0120830BC085E290E0FC01ED
:10036000108206C085E290E0FC01108201C000000E
:100370000000DF91CF910895CF93DF93CDB7DEB723
:1003800081E290E0FC01108282E290E02FEFFC011C
:10039000208384E290E02FEFFC01208385E290E04F
:1003A000FC01108210920F0110920E010E949E001B
:1003B000FDCFEE0FFF1F0024001C0BBE0790F6912F
:0803C000E02D0994F894FFCF31
:0E03C8000000000200000000750000000000B0
:00000001FF
