:100000000C9446000C9465000C9465000C946500FB
:100010000C9465000C9465000C9465000C946500CC
:100020000C9465000C9465000C9465000C946500BC
:100030000C9465000C9465000C9465000C946500AC
:100040000C9465000C9465000C9465000C9465009C
:100050000C9465000C9465000C9465000C9465008C
:100060000C9465000C9465000C9465000C9465007C
:100070000C9465000C9465000C9465000C9465006C
:100080000C9465000C9465000C94650011241FBE4F
:10009000CFEFD0E4DEBFCDBF11E0A0E0B1E0E2EDF4
:1000A000F2E000E00BBF02C007900D92AE30B10746
:1000B000D9F721E0AEE0B1E001C01D92A031B20756
:1000C000E1F70E944E010C9467010C940000CF935D
:1000D000DF9300D01F92CDB7DEB789837B836A831D
:1000E00089818A3031F48A819B81BC018DE00E9434
:1000F000670080EC90E0FC018081882F90E08072A6
:100100009927892BB1F386EC90E02981FC012083AB
:1001100080E090E00F900F900F90DF91CF910895C5
:10012000CF93DF93CDB7DEB780910E0190910F0191
:100130008230910509F451C08330910530F4009765
:1001400059F0019709F442C056C08330910509F473
:100150004BC0049769F04FC084E090E090930F018A
:1001600080930E0188E290E027E0FC0120834AC0E2
:1001700080E290E0FC018081813039F481E090E000
:1001800090930F0180930E013DC080E290E0FC014E
:100190008081823039F482E090E090930F01809367
:1001A0000E0130C080E290E0FC018081833039F4A0
:1001B00083E090E090930F0180930E0123C084E0D0
:1001C00090E090930F0180930E011CC084E090E0BA
:1001D00090930F0180930E0115C084E090E09093FE
:1001E0000F0180930E010EC084E090E090930F0108
:1001F00080930E0107C084E090E090930F018093FC
:100200000E01000080910E0190910F018230910546
:1002100039F18330910528F4009731F0019751F0BE
:1002200039C0039791F136C088E290E027E0FC01E5
:10023000208330C088E290E0FC018081893050F456
:1002400088E290E028E230E0F90120812F5FFC0194
:10025000208320C088E290E029E0FC0120831AC0BE
:1002600088E290E0FC018081882351F088E290E0F0
:1002700028E230E0F90120812150FC0120830AC0EE
:1002800088E290E0FC01108205C088E290E0FC0169
:10029000108200C00000DF91CF910895CF93DF93CB
:1002A000CDB7DEB781E290E0FC01108282E290E0FF
:1002B0002FEFFC01208387E290E02FEFFC012083E9
:1002C00088E290E0FC0110820E949000FDCFF8943B
:0202D000FFCF5E
:0E02D2000000000200000000670000000000B5
:00000001FF
