:100000000C9446000C9465000C9465000C946500FB
:100010000C9465000C9465000C9465000C946500CC
:100020000C9465000C9465000C9465000C946500BC
:100030000C9465000C9465000C9465000C946500AC
:100040000C9465000C9465000C9465000C9465009C
:100050000C9465000C9465000C9465000C9465008C
:100060000C9465000C9465000C9465000C9465007C
:100070000C9465000C9465000C9465000C9465006C
:100080000C9465000C9465000C94650011241FBE4F
:10009000CFEFD0E4DEBFCDBF11E0A0E0B1E0E8E5F6
:1000A000F3E000E00BBF02C007900D92AE30B10745
:1000B000D9F721E0AEE0B1E001C01D92A031B20756
:1000C000E1F70E9491010C94AA010C940000CF93D7
:1000D000DF9300D01F92CDB7DEB789837B836A831D
:1000E00089818A3031F48A819B81BC018DE00E9434
:1000F000670080EC90E0FC018081882F90E08072A6
:100100009927892BB1F386EC90E02981FC012083AB
:1001100080E090E00F900F900F90DF91CF910895C5
:10012000CF93DF93CDB7DEB780910E0190910F0191
:100130008230910509F45CC08330910530F400975A
:1001400079F0019709F446C088C08430910509F41C
:1001500070C08430910508F444C0059769F07DC0F3
:1001600085E090E090930F0180930E0188E290E08B
:1001700027E0FC01208378C080E290E0FC018081D0
:10018000813039F481E090E090930F0180930E016B
:100190006BC080E290E0FC018081823039F483E022
:1001A00090E090930F0180930E015EC080E290E09A
:1001B000FC018081833039F484E090E090930F015A
:1001C00080930E0151C082E090E090930F018093E4
:1001D0000E014AC082E090E090930F0180930E01DF
:1001E00043C082E090E090930F0180930E013CC0E9
:1001F00080E290E0FC018081833039F484E090E07B
:1002000090930F0180930E012FC080E290E0FC01DB
:100210008081882339F485E090E090930F018093EA
:100220000E0122C082E090E090930F0180930E01B6
:100230001BC080E290E0FC018081833039F484E0CF
:1002400090E090930F0180930E010EC082E090E049
:1002500090930F0180930E0107C085E090E090938A
:100260000F0180930E01000080910E0190910F010B
:100270008230910509F44EC08330910528F400972F
:1002800069F0019789F040C084309105C1F1843054
:10029000910500F1059709F43FC036C088E290E06F
:1002A00027E0FC01208339C088E290E0FC018081D6
:1002B000893050F488E290E028E230E0F9012081B2
:1002C0002F5FFC01208329C088E290E029E0FC0137
:1002D000208323C088E290E0FC018081882351F0D4
:1002E00088E290E028E230E0F90120812150FC0111
:1002F000208313C088E290E0FC0110820EC088E2E7
:1003000090E0FC01108209C088E290E027E0FC0147
:10031000208303C0000001C000000000DF91CF91E6
:100320000895CF93DF93CDB7DEB781E290E0FC0173
:10033000108282E290E02FEFFC01208387E290E0C0
:100340002FEFFC01208388E290E0FC0110820E94E4
:080350009000FDCFF894FFCFEF
:0E03580000000002000000006700000000002E
:00000001FF
