:100000000C9454000C9473000C9473000C947300C3
:100010000C9473000C9473000C9473000C94730094
:100020000C9473000C9473000C9473000C94730084
:100030000C9473000C9473000C9473000C94730074
:100040000C9473000C9473000C9473000C94730064
:100050000C9473000C9473000C9473000C94730054
:100060000C9473000C9473000C9473000C94730044
:100070000C9473000C9473000C9473000C94730034
:100080000C9473000C9473000C947300B800BF00C0
:10009000F90033013A014101660199019F01DB0139
:1000A000A501BB01DB01D00111241FBECFEFD0E4BD
:1000B000DEBFCDBF11E0A0E0B1E0E0E1F4E000E0A0
:1000C0000BBF02C007900D92AE30B107D9F721E007
:1000D000AEE0B1E001C01D92A031B207E1F70E948D
:1000E000E0010C9406020C940000CF93DF9300D043
:1000F0001F92CDB7DEB789837B836A8389818A307B
:1001000031F48A819B81BC018DE00E94750080ECF6
:1001100090E0FC018081882F90E080729927892BE4
:10012000B1F386EC90E02981FC01208380E090E02F
:100130000F900F900F90DF91CF910895CF93DF93A1
:10014000CDB7DEB780910E0190910F01CC01A0E0F8
:10015000B0E040E050E026E030E0841B950B28172B
:10016000390708F4CBC08A5B9F4FFC010C94FD015A
:1001700081E090E090930F0180930E01C4C080E273
:1001800090E0FC018081882F90E081709927892B75
:1001900039F083E090E090930F0180930E01B3C09B
:1001A00080E290E0FC018081882F90E082709927A6
:1001B000892B39F084E090E090930F0180930E0139
:1001C000A2C080E290E0FC018081882F90E08370E3
:1001D0009927039739F486E090E090930F0180937C
:1001E0000E0191C085E090E090930F0180930E0185
:1001F0008AC080E290E0FC018081882F90E08170CD
:100200009927892B39F083E090E090930F01809338
:100210000E0179C080E290E0FC018081882F90E09F
:1002200082709927892B39F084E090E090930F0138
:1002300080930E0168C080E290E0FC018081882FED
:1002400090E083709927039739F486E090E09093CB
:100250000F0180930E0157C085E090E090930F014D
:1002600080930E0150C085E090E090930F01809341
:100270000E0149C085E090E090930F0180930E013C
:1002800042C080E290E0FC018081882F90E0837082
:100290009927039739F486E090E090930F018093BB
:1002A0000E0131C080E290E0FC018081882339F4A6
:1002B00082E090E090930F0180930E0124C085E0CE
:1002C00090E090930F0180930E011DC080E290E0BA
:1002D000FC018081882F90E083709927039739F47F
:1002E00086E090E090930F0180930E010CC085E0B2
:1002F00090E090930F0180930E0105C010920F01C2
:1003000010920E01000080910E0190910F01CC011E
:10031000A0E0B0E040E050E026E030E0841B950B28
:100320002817390708F441C0835B9F4FFC010C94E8
:10033000FD0188E290E027E0FC0120833DC088E2D7
:1003400090E027E0FC01208337C088E290E0FC01C8
:100350008081893050F488E290E028E230E0F901B1
:1003600020812F5FFC01208327C088E290E029E0F4
:10037000FC01208321C088E290E0FC018081882379
:1003800051F088E290E028E230E0F901208121502C
:10039000FC01208311C088E290E0FC0110820CC0B7
:1003A00088E290E0FC01108207C088E290E027E03C
:1003B000FC01208301C000000000DF91CF9108956F
:1003C000CF93DF93CDB7DEB781E290E0FC011082DE
:1003D00082E290E02FEFFC01208387E290E02FEF94
:1003E000FC01208388E290E0FC01108210920F0152
:1003F00010920E010E949E00FDCFEE0FFF1F002401
:10040000001C0BBE0790F691E02D0994F894FFCFE5
:0E041000000000020000000075000000000067
:00000001FF
