:100000000C9446000C9465000C9465000C946500FB
:100010000C9465000C9465000C9465000C946500CC
:100020000C9465000C9465000C9465000C946500BC
:100030000C9465000C9465000C9465000C946500AC
:100040000C9465000C9465000C9465000C9465009C
:100050000C9465000C9465000C9465000C9465008C
:100060000C9465000C9465000C9465000C9465007C
:100070000C9465000C9465000C9465000C9465006C
:100080000C9465000C9465000C94650011241FBE4F
:10009000CFEFD0E4DEBFCDBF11E0A0E0B1E0EAE1F8
:1000A000F3E000E00BBF02C007900D92AE30B10745
:1000B000D9F721E0AEE0B1E001C01D92A031B20756
:1000C000E1F70E946E010C948B010C940000CF9319
:1000D000DF9300D01F92CDB7DEB789837B836A831D
:1000E00089818A3031F48A819B81BC018DE00E9434
:1000F000670080EC90E0FC018081882F90E08072A6
:100100009927892BB1F386EC90E02981FC012083AB
:1001100080E090E00F900F900F90DF91CF910895C5
:10012000CF93DF93CDB7DEB780910E0190910F0191
:1001300082309105E1F18330910528F4009779F040
:100140000197A1F090C08430910509F465C0843016
:10015000910508F44DC0059709F472C084C081E090
:1001600090E090930F0180930E0182C080E290E0B6
:10017000FC018081843039F482E090E090930F019B
:1001800080930E0175C080E290E0FC018081803890
:1001900039F485E090E090930F0180930E0168C0E0
:1001A00081E090E090930F0180930E0161C080E2A6
:1001B00090E0FC018081843039F482E090E09093FB
:1001C0000F0180930E0154C080E290E0FC01808119
:1001D000823039F483E090E090930F0180930E0118
:1001E00047C085E090E090930F0180930E0140C0DE
:1001F00080E290E0FC018081823039F484E090E07C
:1002000090930F0180930E0133C081E090E09093B2
:100210000F0180930E012CC080E290E0FC018081F0
:10022000823039F484E090E090930F0180930E01C6
:100230001FC081E090E090930F0180930E0118C0E1
:1002400080E290E0FC018081803839F485E090E024
:1002500090930F0180930E0106C081E090E090938F
:100260000F0180930E0110920F0110920E010000F9
:1002700080910E0190910F018230910531F1833010
:10028000910528F4009761F0019709F119C08430B5
:10029000910559F084309105E0F0059761F010C0A8
:1002A00085E290E0FC01108215C085E290E021E03B
:1002B000FC0120830FC085E290E0FC0110820AC09F
:1002C00085E290E0FC01108205C0000003C0000040
:1002D00001C000000000DF91CF910895CF93DF931C
:1002E000CDB7DEB781E290E0FC01108282E290E0BF
:1002F0002FEFFC01208384E290E02FEFFC012083AC
:1003000085E290E0FC01108210920F0110920E0124
:0A0310000E949000FDCFF894FFCF8B
:0E031A0000000002000000006700000000006C
:00000001FF
