:100000000C9446000C9465000C9465000C946500FB
:100010000C9465000C9465000C9465000C946500CC
:100020000C9465000C9465000C9465000C946500BC
:100030000C9465000C9465000C9465000C946500AC
:100040000C9465000C9465000C9465000C9465009C
:100050000C9465000C9465000C9465000C9465008C
:100060000C9465000C9465000C9465000C9465007C
:100070000C9465000C9465000C9465000C9465006C
:100080000C9465000C9465000C94650011241FBE4F
:10009000CFEFD0E4DEBFCDBF11E0A0E0B1E0E2E9F8
:1000A000F3E000E00BBF02C007900D92AE30B10745
:1000B000D9F721E0AEE0B1E001C01D92A031B20756
:1000C000E1F70E94AA010C94C7010C940000CF93A1
:1000D000DF9300D01F92CDB7DEB789837B836A831D
:1000E00089818A3031F48A819B81BC018DE00E9434
:1000F000670080EC90E0FC018081882F90E08072A6
:100100009927892BB1F386EC90E02981FC012083AB
:1001100080E090E00F900F900F90DF91CF910895C5
:10012000CF93DF93CDB7DEB780910E0190910F0191
:1001300082309105E1F18330910528F4009779F040
:100140000197A1F0CCC08430910509F489C08430B6
:10015000910508F457C0059709F4ADC0C0C081E00F
:1001600090E090930F0180930E01BEC080E290E07A
:10017000FC018081843039F482E090E090930F019B
:1001800080930E01B1C080E290E0FC018081803854
:1001900039F485E090E090930F0180930E01A4C0A4
:1001A00081E090E090930F0180930E019DC080E26A
:1001B00090E0FC018081843039F482E090E09093FB
:1001C0000F0180930E0190C080E290E0FC018081DD
:1001D000882354F080E290E0FC018081882F90E039
:1001E00086709927069739F485E090E090930F0187
:1001F00080930E0179C083E090E090930F0180938B
:100200000E0172C080E290E0FC018081823039F4FE
:1002100084E090E090930F0180930E0165C080E22E
:1002200090E0FC018081863039F485E090E0909385
:100230000F0180930E0158C080E290E0FC018081A4
:10024000882339F483E090E090930F0180930E01AE
:100250004BC081E090E090930F0180930E0144C069
:1002600080E290E0FC018081882F90E087709927E0
:10027000029739F484E090E090930F0180930E018F
:1002800033C080E290E0FC018081882334F080E27A
:1002900090E0FC018081863039F485E090E0909315
:1002A0000F0180930E0120C081E090E090930F0138
:1002B00080930E0119C080E290E0FC0180818038BB
:1002C00039F485E090E090930F0180930E010CC00B
:1002D00081E090E090930F0180930E0105C0109291
:1002E0000F0110920E01000080910E0190910F01FC
:1002F0008230910531F18330910528F4009761F047
:10030000019709F119C08430910559F084309105A5
:10031000E0F0059761F010C085E290E0FC011082EA
:1003200015C085E290E021E0FC0120830FC085E24A
:1003300090E0FC0110820AC085E290E0FC0110828E
:1003400005C0000003C0000001C000000000DF91F4
:10035000CF910895CF93DF93CDB7DEB781E290E0E0
:10036000FC01108282E290E02FEFFC01208384E206
:1003700090E02FEFFC01208385E290E0FC011082E9
:1003800010920F0110920E010E949000FDCFF89480
:02039000FFCF9D
:0E0392000000000200000000670000000000F4
:00000001FF
