:100000000C9456000C9475000C9475000C947500BB
:100010000C9475000C9475000C9475000C9475008C
:100020000C9475000C9475000C9475000C9475007C
:100030000C9475000C9475000C9475000C9475006C
:100040000C9475000C9475000C9475000C9475005C
:100050000C9475000C9475000C9475000C9475004C
:100060000C9475000C9475000C9475000C9475003C
:100070000C9475000C9475000C9475000C9475002C
:100080000C9475000C9475000C947500BA00C100B6
:10009000C800FC001A0138013F0146017A018001C5
:1000A000BC01BC01BC0186019C01B10111241FBE31
:1000B000CFEFD0E4DEBFCDBF11E0A0E0B1E0E2EDD4
:1000C000F3E000E00BBF02C007900D92AE30B10725
:1000D000D9F721E0AEE0B1E001C01D92A031B20736
:1000E000E1F70E94C1010C94E7010C940000CF934A
:1000F000DF9300D01F92CDB7DEB789837B836A83FD
:1001000089818A3031F48A819B81BC018DE00E9413
:10011000770080EC90E0FC018081882F90E0807275
:100120009927892BB1F386EC90E02981FC0120838B
:1001300080E090E00F900F900F90DF91CF910895A5
:10014000CF93DF93CDB7DEB780910E0190910F0171
:10015000CC01A0E0B0E040E050E027E030E0841BBC
:10016000950B2817390708F4A9C08A5B9F4FFC013B
:100170000C94DE0181E090E090930F0180930E01DA
:10018000A3C082E090E090930F0180930E019CC089
:1001900080E290E0FC018081882F90E081709927B7
:1001A000892B39F085E090E090930F0180930E0148
:1001B0008AC080E290E0FC018081882F90E082700C
:1001C0009927892B39F086E090E090930F01809376
:1001D0000E0179C080E290E0FC018081882F90E0E0
:1001E00083709927039709F06EC087E090E09093A1
:1001F0000F0180930E0167C080E290E0FC018081D6
:10020000882F90E081709927892B31F480E290E06B
:10021000FC018081882339F483E090E090930F0102
:1002200080930E0151C082E090E090930F01809383
:100230000E014AC080E290E0FC018081882F90E0AE
:1002400082709927892B31F480E290E0FC01808153
:10025000882339F484E090E090930F0180930E019D
:1002600033C082E090E090930F0180930E012CC088
:1002700083E090E090930F0180930E0125C084E00D
:1002800090E090930F0180930E011EC080E290E0F9
:10029000FC018081882F90E083709927039739F4BF
:1002A00087E090E090930F0180930E010DC082E0F3
:1002B00090E090930F0180930E0106C010920F0101
:1002C00010920E0101C0000080910E0190910F016B
:1002D000CC01A0E0B0E040E050E027E030E0841B3B
:1002E000950B2817390708F441C0825B9F4FFC012A
:1002F0000C94DE0188E290E027E0FC0120833DC001
:1003000088E290E027E0FC01208337C088E290E09B
:10031000FC018081893050F488E290E028E230E0EE
:10032000F90120812F5FFC01208327C088E290E043
:1003300029E0FC01208321C088E290E0FC0180815B
:10034000882351F088E290E028E230E0F901208132
:100350002150FC01208311C088E290E0FC01108252
:100360000CC088E290E0FC01108207C088E290E0B7
:1003700027E0FC01208301C000000000DF91CF9145
:100380000895CF93DF93CDB7DEB781E290E0FC0113
:10039000108282E290E02FEFFC01208387E290E060
:1003A0002FEFFC01208388E290E0FC011082109284
:1003B0000F0110920E010E94A000FDCFEE0FFF1F53
:1003C0000024001C0BBE0790F691E02D0994F894D0
:0203D000FFCF5D
:0E03D2000000000200000000770000000000A4
:00000001FF
