:100000000C9446000C9465000C9465000C946500FB
:100010000C9465000C9465000C9465000C946500CC
:100020000C9465000C9465000C9465000C946500BC
:100030000C9465000C9465000C9465000C946500AC
:100040000C9465000C9465000C9465000C9465009C
:100050000C9465000C9465000C9465000C9465008C
:100060000C9465000C9465000C9465000C9465007C
:100070000C9465000C9465000C9465000C9465006C
:100080000C9465000C9465000C94650011241FBE4F
:10009000CFEFD0E4DEBFCDBF11E0A0E0B1E0E8E5F6
:1000A000F3E000E00BBF02C007900D92AE30B10745
:1000B000D9F721E0AEE0B1E001C01D92A031B20756
:1000C000E1F70E9491010C94AA010C940000CF93D7
:1000D000DF9300D01F92CDB7DEB789837B836A831D
:1000E00089818A3031F48A819B81BC018DE00E9434
:1000F000670080EC90E0FC018081882F90E08072A6
:100100009927892BB1F386EC90E02981FC012083AB
:1001100080E090E00F900F900F90DF91CF910895C5
:10012000CF93DF93CDB7DEB780910E0190910F0191
:100130008230910509F45CC08330910530F400975A
:1001400079F0019709F446C088C08430910509F41C
:1001500070C08430910508F444C0059769F07DC0F3
:1001600085E090E090930F0180930E0188E290E08B
:1001700027E0FC01208376C080E290E0FC018081D2
:10018000813039F481E090E090930F0180930E016B
:1001900069C080E290E0FC018081823039F483E024
:1001A00090E090930F0180930E015CC080E290E09C
:1001B000FC018081833039F484E090E090930F015A
:1001C00080930E014FC082E090E090930F018093E6
:1001D0000E0148C082E090E090930F0180930E01E1
:1001E00041C082E090E090930F0180930E013AC0ED
:1001F00080E290E0FC018081833039F484E090E07B
:1002000090930F0180930E012DC080E290E0FC01DD
:100210008081882339F485E090E090930F018093EA
:100220000E0120C082E090E090930F0180930E01B8
:1002300019C080E290E0FC018081833039F484E0D1
:1002400090E090930F0180930E010CC082E090E04B
:1002500090930F0180930E0105C010920F01109230
:100260000E01000080910E0190910F0182309105E6
:1002700009F452C08330910528F4009761F001978A
:1002800081F044C084309105E1F184309105F8F0AB
:10029000059791F13BC088E290E027E0FC012083C4
:1002A0003CC088E290E0FC018081893050F488E213
:1002B00090E028E230E0F90120812F5FFC012083EB
:1002C0002CC088E290E029E0FC01208326C088E26F
:1002D00090E0FC018081882351F088E290E028E2E0
:1002E00030E0F90120812150FC01208316C088E212
:1002F00090E0FC01108211C088E290E027E0FC0150
:10030000208388E290E0FC01108207C088E290E040
:1003100027E0FC01208301C000000000DF91CF91A5
:100320000895CF93DF93CDB7DEB781E290E0FC0173
:10033000108282E290E02FEFFC01208387E290E0C0
:100340002FEFFC01208388E290E0FC0110820E94E4
:080350009000FDCFF894FFCFEF
:0E03580000000002000000006700000000002E
:00000001FF
