:100000000C945A000C9479000C9479000C947900AB
:100010000C9479000C9479000C9479000C9479007C
:100020000C9479000C9479000C9479000C9479006C
:100030000C9479000C9479000C9479000C9479005C
:100040000C9479000C9479000C9479000C9479004C
:100050000C9479000C9479000C9479000C9479003C
:100060000C9479000C9479000C9479000C9479002C
:100070000C9479000C9479000C9479000C9479001C
:100080000C9479000C9479000C947900BE00C500A2
:100090005D01E6004901C301070128017E01A901B4
:1000A000DD01F701F701F701F701F701F701E201BF
:1000B000E801ED0111241FBECFEFD0E4DEBFCDBFBC
:1000C00011E0A0E0B1E0E8E4F4E000E00BBF02C022
:1000D00007900D92AE30B107D9F721E0AEE0B1E064
:1000E00001C01D92A031B207E1F70E94FC010C94FF
:1000F00022020C940000CF93DF9300D01F92CDB763
:10010000DEB789837B836A8389818A3031F48A816F
:100110009B81BC018DE00E947B0080EC90E0FC01A3
:100120008081882F90E080729927892BB1F386EC2B
:1001300090E02981FC01208380E090E00F900F90F7
:100140000F90DF91CF910895CF93DF93CDB7DEB7B6
:1001500080910E0190910F01CC01A0E0B0E040E051
:1001600050E029E030E0841B950B2817390708F48C
:100170000AC18A5B9F4FFC010C94190281E090E058
:1001800090930F0180930E0103C180E290E0FC0187
:100190008081843039F483E090E090930F01809364
:1001A0000E01F6C080E290E0FC018081803839F4D5
:1001B00089E090E090930F0180930E01E9C081E007
:1001C00090E090930F0180930E01E2C080E290E0F6
:1001D000FC018081843039F483E090E090930F013A
:1001E00080930E01D5C080E290E0FC0180818823DD
:1001F00039F486E090E090930F0180930E01C8C01F
:1002000089E090E090930F0180930E01C1C080E2DD
:1002100090E0FC018081882339F486E090E090939F
:100220000F0180930E01B4C080E290E0FC01808158
:10023000823039F487E090E090930F0180930E01B3
:10024000A7C089E090E090930F0180930E01A0C0B9
:1002500080E290E0FC018081823039F488E090E017
:1002600090930F0180930E0193C080E290E0FC0117
:100270008081882339F484E090E090930F0180938B
:100280000E0186C081E090E090930F0180930E01F3
:100290007FC080E290E0FC018081843039F482E00C
:1002A00090E090930F0180930E0172C081E090E086
:1002B00090930F0180930E016BC080E290E0FC01EF
:1002C0008081882339F485E090E090930F0180933A
:1002D0000E015EC080E290E0FC018081823039F442
:1002E00089E090E090930F0180930E0151C087E068
:1002F00090E090930F0180930E014AC080E290E05D
:10030000FC018081882F90E087709927029739F44B
:1003100088E090E090930F0180930E0139C080E255
:1003200090E0FC018081882334F080E290E0FC01C1
:100330008081863039F489E090E090930F018093BA
:100340000E0126C081E090E090930F0180930E0192
:100350001FC080E290E0FC018081803831F080E2B3
:1003600090E0FC018081863039F489E090E0909340
:100370000F0180930E010CC081E090E090930F017B
:1003800080930E0105C010920F0110920E01000023
:1003900080910E0190910F01CC01A0E0B0E040E00F
:1003A00050E029E030E0841B950B28173907D0F086
:1003B000805B9F4FFC010C94190285E290E0FC01E8
:1003C000108216C085E290E021E0FC01208310C07D
:1003D00085E290E0FC0110820BC085E290E0FC0118
:1003E000108206C085E290E0FC01108201C000008E
:1003F0000000DF91CF910895CF93DF93CDB7DEB7A3
:1004000081E290E0FC01108282E290E02FEFFC019B
:10041000208384E290E02FEFFC01208385E290E0CE
:10042000FC01108210920F0110920E010E94A40094
:10043000FDCFEE0FFF1F0024001C0BBE0790F691AE
:08044000E02D0994F894FFCFB0
:0E04480000000002000000007B000000000029
:00000001FF
