:100000000C9446000C945D000C945D000C945D0013
:100010000C945D000C945D000C945D000C945D00EC
:100020000C945D000C945D000C945D000C945D00DC
:100030000C945D000C945D000C945D000C945D00CC
:100040000C945D000C945D000C945D000C945D00BC
:100050000C945D000C945D000C945D000C945D00AC
:100060000C945D000C945D000C945D000C945D009C
:100070000C945D000C945D000C945D000C945D008C
:100080000C945D000C945D000C945D0011241FBE67
:10009000CFEFD0E4DEBFCDBF11E0A0E0B1E0E0ECF7
:1000A000F1E000E00BBF02C007900D92AE30B10747
:1000B000D9F70E9488000C94DE000C940000CF93C6
:1000C000DF9300D01F92CDB7DEB789837B836A832D
:1000D00089818A3031F48A819B81BC018DE00E9444
:1000E0005F0080EC90E0FC018081882F90E08072BE
:1000F0009927892BB1F386EC90E02981FC012083BC
:1001000080E090E00F900F900F90DF91CF910895D5
:10011000CF93DF9300D000D01F92CDB7DEB784E23B
:1001200090E02EEFFC01208385E290E021E0FC01CD
:10013000208387E290E0FC0110828BE290E02FEFB9
:10014000FC0120831B821D821C8219821A8289E293
:1001500090E0FC018081882F90E0880F991F9D839B
:100160008C8383E290E0FC01808181708B838B81A2
:10017000882F90E02C813D81822B932B9D838C8353
:100180008C819D818634910518F082E0898301C0BD
:1001900019828C819D81069740F08C819D818634E7
:1001A000910518F484E08A8301C01A8285E290E008
:1001B00039812A81232BFC012083C9CFF894FFCFFA
:0E01C00000000002000000005F0000000000D0
:00000001FF
