:100000000C9446000C9465000C9465000C946500FB
:100010000C9465000C9465000C9465000C946500CC
:100020000C9465000C9465000C9465000C946500BC
:100030000C9465000C9465000C9465000C946500AC
:100040000C9465000C9465000C9465000C9465009C
:100050000C9465000C9465000C9465000C9465008C
:100060000C9465000C9465000C9465000C9465007C
:100070000C9465000C9465000C9465000C9465006C
:100080000C9465000C9465000C94650011241FBE4F
:10009000CFEFD0E4DEBFCDBF11E0A0E0B1E0E2EDF4
:1000A000F2E000E00BBF02C007900D92AE30B10746
:1000B000D9F721E0AEE0B1E001C01D92A031B20756
:1000C000E1F70E944E010C9467010C940000CF935D
:1000D000DF9300D01F92CDB7DEB789837B836A831D
:1000E00089818A3031F48A819B81BC018DE00E9434
:1000F000670080EC90E0FC018081882F90E08072A6
:100100009927892BB1F386EC90E02981FC012083AB
:1001100080E090E00F900F900F90DF91CF910895C5
:10012000CF93DF93CDB7DEB780910E0190910F0191
:100130008230910571F18330910528F4009751F0D8
:10014000019779F06EC083309105D9F1049709F4D5
:1001500050C067C081E090E090930F0180930E0142
:1001600066C080E290E0FC018081882F90E0817081
:100170009927892B39F081E090E090930F018093CB
:100180000E0155C082E090E090930F0180930E0124
:100190004EC080E290E0FC018081882F90E0817069
:1001A0009927892B39F083E090E090930F01809399
:1001B0000E013DC082E090E090930F0180930E010C
:1001C00036C080E290E0FC018081882F90E0817051
:1001D0009927892B39F083E090E090930F01809369
:1001E0000E0125C084E090E090930F0180930E01F2
:1001F0001EC080E290E0FC018081882F90E0817039
:100200009927892B39F081E090E090930F0180933A
:100210000E010DC084E090E090930F0180930E01D9
:1002200006C081E090E090930F0180930E018091D1
:100230000E0190910F0182309105D1F0833091052C
:1002400028F4009749F0019769F024C083309105A4
:10025000A9F00497C9F01EC085E290E021E0FC01FE
:10026000208318C085E290E021E0FC01208312C0C9
:1002700085E290E021E0FC0120830CC085E290E063
:1002800022E0FC01208306C085E290E022E0FC0130
:10029000208300000000DF91CF910895CF93DF937A
:1002A000CDB7DEB781E290E0FC01108282E290E0FF
:1002B0002FEFFC01208384E290E02FEFFC012083EC
:1002C00085E290E0FC0110820E949000FDCFF8943E
:0202D000FFCF5E
:0E02D2000000000200000000670000000000B5
:00000001FF
