:100000000C9446000C945D000C945D000C945D0013
:100010000C945D000C945D000C945D000C945D00EC
:100020000C945D000C945D000C945D000C945D00DC
:100030000C945D000C945D000C945D000C945D00CC
:100040000C945D000C945D000C945D000C945D00BC
:100050000C945D000C945D000C945D000C945D00AC
:100060000C945D000C945D000C945D000C945D009C
:100070000C945D000C945D000C945D000C945D008C
:100080000C945D000C945D000C945D0011241FBE67
:10009000CFEFD0E4DEBFCDBF11E0A0E0B1E0EAECED
:1000A000F1E000E00BBF02C007900D92AE30B10747
:1000B000D9F70E9488000C94E3000C940000CF93C1
:1000C000DF9300D01F92CDB7DEB789837B836A832D
:1000D00089818A3031F48A819B81BC018DE00E9444
:1000E0005F0080EC90E0FC018081882F90E08072BE
:1000F0009927892BB1F386EC90E02981FC012083BC
:1001000080E090E00F900F900F90DF91CF910895D5
:10011000CF93DF9300D000D01F92CDB7DEB781E23E
:1001200090E0FC01108282E290E02FEFFC0120833E
:1001300084E290E0FC01108285E290E02FEFFC0168
:10014000208387E290E02FEFFC01208388E290E09B
:10015000FC01108219821B821C821D821A8280E29D
:1001600090E0FC0180818C8383E290E0FC0180813F
:100170008D8381E08A830BC09C818A8189238823B7
:1001800019F089818F5F89838A81880F8A838A81A8
:10019000813890F381E08A830BC09D818A81892315
:1001A000882319F089818F5F89838A81880F8A83E8
:1001B0008A81813890F388E290E039812B81230F86
:0A01C000FC012083CCCFF894FFCFA0
:0E01CA0000000002000000005F0000000000C6
:00000001FF
