:100000000C9446000C945D000C945D000C945D0013
:100010000C945D000C945D000C945D000C945D00EC
:100020000C945D000C945D000C945D000C945D00DC
:100030000C945D000C945D000C945D000C945D00CC
:100040000C945D000C945D000C945D000C945D00BC
:100050000C945D000C945D000C945D000C945D00AC
:100060000C945D000C945D000C945D000C945D009C
:100070000C945D000C945D000C945D000C945D008C
:100080000C945D000C945D000C945D0011241FBE67
:10009000CFEFD0E4DEBFCDBF11E0A0E0B1E0E6E1FC
:1000A000F2E000E00BBF02C007900D92AE30B10746
:1000B000D9F70E9488000C9409010C940000CF939A
:1000C000DF9300D01F92CDB7DEB789837B836A832D
:1000D00089818A3031F48A819B81BC018DE00E9444
:1000E0005F0080EC90E0FC018081882F90E08072BE
:1000F0009927892BB1F386EC90E02981FC012083BC
:1001000080E090E00F900F900F90DF91CF910895D5
:10011000CF93DF93CDB7DEB727970FB6F894DEBF46
:100120000FBECDBF81E290E0FC01108282E290E040
:100130002FEFFC01208384E290E0FC01108285E235
:1001400090E02FEFFC01208387E290E0FC01108219
:1001500088E290E02FEFFC0120838AE290E02FEF0D
:10016000FC0120838BE290E0FC0110821B821C8248
:100170001D821E8219821A821F8280E290E0FC0199
:1001800080818B8383E290E0FC0180818C8386E216
:1001900090E0FC0180818D839B818C81980F8D8103
:1001A000890F8E838E818D3818F081E0898301C09C
:1001B00019828B81282F30E08D81882F90E0A90152
:1001C000481B590BCA01813591056CF48D81282F8C
:1001D00030E08B81882F90E0F901E81BF90BCF010B
:1001E000813591051CF082E08A8301C01A828E81DC
:1001F000869586958E838E81982F9C7F8981982BFA
:100200008A81892B8F838BE290E02F81FC012083F0
:06021000B4CFF894FFCF0B
:0E02160000000002000000005F000000000079
:00000001FF
